{
    "contractName": "GdeSS",
    "abi": [
        {
            "anonymous": false,
            "inputs": [
                {
                    "indexed": true,
                    "internalType": "address",
                    "name": "owner",
                    "type": "address"
                },
                {
                    "indexed": true,
                    "internalType": "address",
                    "name": "spender",
                    "type": "address"
                },
                {
                    "indexed": false,
                    "internalType": "uint256",
                    "name": "value",
                    "type": "uint256"
                }
            ],
            "name": "Approval",
            "type": "event"
        },
        {
            "anonymous": false,
            "inputs": [
                {
                    "indexed": false,
                    "internalType": "uint256",
                    "name": "amount",
                    "type": "uint256"
                }
            ],
            "name": "Bought",
            "type": "event"
        },
        {
            "anonymous": false,
            "inputs": [
                {
                    "indexed": false,
                    "internalType": "uint256",
                    "name": "amount",
                    "type": "uint256"
                }
            ],
            "name": "Claimed",
            "type": "event"
        },
        {
            "anonymous": false,
            "inputs": [
                {
                    "indexed": true,
                    "internalType": "address",
                    "name": "from",
                    "type": "address"
                },
                {
                    "indexed": true,
                    "internalType": "address",
                    "name": "to",
                    "type": "address"
                },
                {
                    "indexed": false,
                    "internalType": "uint256",
                    "name": "value",
                    "type": "uint256"
                }
            ],
            "name": "Transfer",
            "type": "event"
        },
        {
            "inputs": [],
            "name": "Claim",
            "outputs": [],
            "stateMutability": "payable",
            "type": "function"
        },
        {
            "inputs": [],
            "name": "EmergencyWithdraw",
            "outputs": [],
            "stateMutability": "nonpayable",
            "type": "function"
        },
        {
            "inputs": [
                {
                    "internalType": "address",
                    "name": "_beneficiary",
                    "type": "address"
                },
                {
                    "internalType": "bool",
                    "name": "islocked",
                    "type": "bool"
                }
            ],
            "name": "SetLock",
            "outputs": [],
            "stateMutability": "nonpayable",
            "type": "function"
        },
        {
            "inputs": [
                {
                    "internalType": "address[]",
                    "name": "_beneficiaries",
                    "type": "address[]"
                },
                {
                    "internalType": "uint256",
                    "name": "_tokenAmount",
                    "type": "uint256"
                }
            ],
            "name": "addBeneficiaries",
            "outputs": [],
            "stateMutability": "nonpayable",
            "type": "function"
        },
        {
            "inputs": [
                {
                    "internalType": "address",
                    "name": "_beneficiary",
                    "type": "address"
                },
                {
                    "internalType": "uint256",
                    "name": "_tokenAmount",
                    "type": "uint256"
                }
            ],
            "name": "addBeneficiary",
            "outputs": [],
            "stateMutability": "nonpayable",
            "type": "function"
        },
        {
            "inputs": [],
            "name": "admin",
            "outputs": [
                {
                    "internalType": "address",
                    "name": "",
                    "type": "address"
                }
            ],
            "stateMutability": "view",
            "type": "function"
        },
        {
            "inputs": [
                {
                    "internalType": "address",
                    "name": "owner",
                    "type": "address"
                },
                {
                    "internalType": "address",
                    "name": "spender",
                    "type": "address"
                }
            ],
            "name": "allowance",
            "outputs": [
                {
                    "internalType": "uint256",
                    "name": "",
                    "type": "uint256"
                }
            ],
            "stateMutability": "view",
            "type": "function"
        },
        {
            "inputs": [
                {
                    "internalType": "address",
                    "name": "spender",
                    "type": "address"
                },
                {
                    "internalType": "uint256",
                    "name": "amount",
                    "type": "uint256"
                }
            ],
            "name": "approve",
            "outputs": [
                {
                    "internalType": "bool",
                    "name": "",
                    "type": "bool"
                }
            ],
            "stateMutability": "nonpayable",
            "type": "function"
        },
        {
            "inputs": [
                {
                    "internalType": "address",
                    "name": "account",
                    "type": "address"
                }
            ],
            "name": "balanceOf",
            "outputs": [
                {
                    "internalType": "uint256",
                    "name": "",
                    "type": "uint256"
                }
            ],
            "stateMutability": "view",
            "type": "function"
        },
        {
            "inputs": [
                {
                    "internalType": "uint256",
                    "name": "amount",
                    "type": "uint256"
                }
            ],
            "name": "burn",
            "outputs": [],
            "stateMutability": "nonpayable",
            "type": "function"
        },
        {
            "inputs": [
                {
                    "internalType": "address",
                    "name": "_beneficiary",
                    "type": "address"
                },
                {
                    "internalType": "uint256",
                    "name": "_token_amount",
                    "type": "uint256"
                }
            ],
            "name": "decReward",
            "outputs": [],
            "stateMutability": "nonpayable",
            "type": "function"
        },
        {
            "inputs": [],
            "name": "decimals",
            "outputs": [
                {
                    "internalType": "uint8",
                    "name": "",
                    "type": "uint8"
                }
            ],
            "stateMutability": "view",
            "type": "function"
        },
        {
            "inputs": [
                {
                    "internalType": "address",
                    "name": "spender",
                    "type": "address"
                },
                {
                    "internalType": "uint256",
                    "name": "subtractedValue",
                    "type": "uint256"
                }
            ],
            "name": "decreaseAllowance",
            "outputs": [
                {
                    "internalType": "bool",
                    "name": "",
                    "type": "bool"
                }
            ],
            "stateMutability": "nonpayable",
            "type": "function"
        },
        {
            "inputs": [],
            "name": "deposit",
            "outputs": [],
            "stateMutability": "nonpayable",
            "type": "function"
        },
        {
            "inputs": [
                {
                    "internalType": "address",
                    "name": "_beneficiary",
                    "type": "address"
                },
                {
                    "internalType": "uint256",
                    "name": "_token_amount",
                    "type": "uint256"
                }
            ],
            "name": "incReward",
            "outputs": [],
            "stateMutability": "nonpayable",
            "type": "function"
        },
        {
            "inputs": [
                {
                    "internalType": "address",
                    "name": "spender",
                    "type": "address"
                },
                {
                    "internalType": "uint256",
                    "name": "addedValue",
                    "type": "uint256"
                }
            ],
            "name": "increaseAllowance",
            "outputs": [
                {
                    "internalType": "bool",
                    "name": "",
                    "type": "bool"
                }
            ],
            "stateMutability": "nonpayable",
            "type": "function"
        },
        {
            "inputs": [],
            "name": "name",
            "outputs": [
                {
                    "internalType": "string",
                    "name": "",
                    "type": "string"
                }
            ],
            "stateMutability": "view",
            "type": "function"
        },
        {
            "inputs": [],
            "name": "symbol",
            "outputs": [
                {
                    "internalType": "string",
                    "name": "",
                    "type": "string"
                }
            ],
            "stateMutability": "view",
            "type": "function"
        },
        {
            "inputs": [],
            "name": "totalSupply",
            "outputs": [
                {
                    "internalType": "uint256",
                    "name": "",
                    "type": "uint256"
                }
            ],
            "stateMutability": "view",
            "type": "function"
        },
        {
            "inputs": [
                {
                    "internalType": "address",
                    "name": "recipient",
                    "type": "address"
                },
                {
                    "internalType": "uint256",
                    "name": "amount",
                    "type": "uint256"
                }
            ],
            "name": "transfer",
            "outputs": [
                {
                    "internalType": "bool",
                    "name": "",
                    "type": "bool"
                }
            ],
            "stateMutability": "nonpayable",
            "type": "function"
        },
        {
            "inputs": [
                {
                    "internalType": "address",
                    "name": "sender",
                    "type": "address"
                },
                {
                    "internalType": "address",
                    "name": "recipient",
                    "type": "address"
                },
                {
                    "internalType": "uint256",
                    "name": "amount",
                    "type": "uint256"
                }
            ],
            "name": "transferFrom",
            "outputs": [
                {
                    "internalType": "bool",
                    "name": "",
                    "type": "bool"
                }
            ],
            "stateMutability": "nonpayable",
            "type": "function"
        }
    ],
    "bytecode": "608060405260006008553480156200001657600080fd5b506040518060400160405280601281526020017129b7b1b4b0b621b932b234ba39aa37b5b2b760711b8152506040518060400160405280600381526020016214d0d560ea1b815250816003908051906020019062000076929190620001a9565b5080516200008c906004906020840190620001a9565b505050620000a933670de0b6b3a7640000620000c160201b60201c565b600580546001600160a01b03191633179055620002b3565b6001600160a01b0382166200011c5760405162461bcd60e51b815260206004820152601f60248201527f45524332303a206d696e7420746f20746865207a65726f206164647265737300604482015260640160405180910390fd5b80600260008282546200013091906200024f565b90915550506001600160a01b038216600090815260208190526040812080548392906200015f9084906200024f565b90915550506040518181526001600160a01b038316906000907fddf252ad1be2c89b69c2b068fc378daa952ba7f163c4a11628f55a4df523b3ef9060200160405180910390a35050565b828054620001b79062000276565b90600052602060002090601f016020900481019282620001db576000855562000226565b82601f10620001f657805160ff191683800117855562000226565b8280016001018555821562000226579182015b828111156200022657825182559160200191906001019062000209565b506200023492915062000238565b5090565b5b8082111562000234576000815560010162000239565b600082198211156200027157634e487b7160e01b600052601160045260246000fd5b500190565b600181811c908216806200028b57607f821691505b60208210811415620002ad57634e487b7160e01b600052602260045260246000fd5b50919050565b61124280620002c36000396000f3fe6080604052600436106101295760003560e01c80639300a880116100ab578063a9059cbb1161006f578063a9059cbb14610319578063cc6a1a0614610339578063d0e30db01461034e578063d3ae196314610363578063dd62ed3e14610383578063f851a440146103c957600080fd5b80639300a8801461028457806395d89b41146102a457806396074e70146102b95780639713f976146102d9578063a457c2d7146102f957600080fd5b8063313ce567116100f2578063313ce567146101ea5780633158952e14610206578063395093511461020e57806342966c681461022e57806370a082311461024e57600080fd5b80624bb37d1461012e57806306fdde0314610150578063095ea7b31461017b57806318160ddd146101ab57806323b872dd146101ca575b600080fd5b34801561013a57600080fd5b5061014e610149366004610f57565b610401565b005b34801561015c57600080fd5b506101656104ab565b6040516101729190610f81565b60405180910390f35b34801561018757600080fd5b5061019b610196366004610f57565b61053d565b6040519015158152602001610172565b3480156101b757600080fd5b506002545b604051908152602001610172565b3480156101d657600080fd5b5061019b6101e5366004610fd6565b610553565b3480156101f657600080fd5b5060405160128152602001610172565b61014e6105fd565b34801561021a57600080fd5b5061019b610229366004610f57565b61068f565b34801561023a57600080fd5b5061014e610249366004611012565b6106cb565b34801561025a57600080fd5b506101bc61026936600461102b565b6001600160a01b031660009081526020819052604090205490565b34801561029057600080fd5b5061014e61029f36600461104d565b6106d8565b3480156102b057600080fd5b5061016561079e565b3480156102c557600080fd5b5061014e6102d4366004610f57565b6107ad565b3480156102e557600080fd5b5061014e6102f4366004610f57565b610816565b34801561030557600080fd5b5061019b610314366004610f57565b610916565b34801561032557600080fd5b5061019b610334366004610f57565b6109af565b34801561034557600080fd5b5061014e6109bc565b34801561035a57600080fd5b5061014e610a14565b34801561036f57600080fd5b5061014e61037e3660046110c8565b610a3e565b34801561038f57600080fd5b506101bc61039e366004611104565b6001600160a01b03918216600090815260016020908152604080832093909416825291909152205490565b3480156103d557600080fd5b506005546103e9906001600160a01b031681565b6040516001600160a01b039091168152602001610172565b6005546001600160a01b031633146104345760405162461bcd60e51b815260040161042b90611137565b60405180910390fd5b6000811161047a5760405162461bcd60e51b8152602060048201526013602482015272105b5bdd5b9d081a5cc81d5b9919599a5b9959606a1b604482015260640161042b565b6001600160a01b038216600090815260066020526040812080548392906104a2908490611171565b90915550505050565b6060600380546104ba90611189565b80601f01602080910402602001604051908101604052809291908181526020018280546104e690611189565b80156105335780601f1061050857610100808354040283529160200191610533565b820191906000526020600020905b81548152906001019060200180831161051657829003601f168201915b5050505050905090565b600061054a338484610b02565b50600192915050565b6000610560848484610c27565b6001600160a01b0384166000908152600160209081526040808320338452909152902054828110156105e55760405162461bcd60e51b815260206004820152602860248201527f45524332303a207472616e7366657220616d6f756e74206578636565647320616044820152676c6c6f77616e636560c01b606482015260840161042b565b6105f28533858403610b02565b506001949350505050565b3360009081526007602052604090205460ff16156106555760405162461bcd60e51b81526020600482015260156024820152741d5cd95c8818d85b9b9bdd081899481b1bd8dad959605a1b604482015260640161042b565b336000908152600660205260408120546008805491929091610678908490611171565b909155505033600090815260066020526040812055565b3360008181526001602090815260408083206001600160a01b0387168452909152812054909161054a9185906106c6908690611171565b610b02565b6106d53382610df5565b50565b6005546001600160a01b031633146107025760405162461bcd60e51b815260040161042b90611137565b60005b8281101561079857816008600082825461071f91906111c4565b909155508290506006600086868581811061073c5761073c6111db565b9050602002016020810190610751919061102b565b6001600160a01b03166001600160a01b0316815260200190815260200160002060008282546107809190611171565b90915550819050610790816111f1565b915050610705565b50505050565b6060600480546104ba90611189565b6005546001600160a01b031633146107d75760405162461bcd60e51b815260040161042b90611137565b80600860008282546107e991906111c4565b90915550506001600160a01b038216600090815260066020526040812080548392906104a2908490611171565b6005546001600160a01b031633146108405760405162461bcd60e51b815260040161042b90611137565b600081116108865760405162461bcd60e51b8152602060048201526013602482015272105b5bdd5b9d081a5cc81d5b9919599a5b9959606a1b604482015260640161042b565b6001600160a01b0382166000908152600660205260409020548111156108ee5760405162461bcd60e51b815260206004820181905260248201527f4e6f7420656e6f75676820746f6b656e73206f6e207468652062616c616e6365604482015260640161042b565b6001600160a01b038216600090815260066020526040812080548392906104a29084906111c4565b3360009081526001602090815260408083206001600160a01b0386168452909152812054828110156109985760405162461bcd60e51b815260206004820152602560248201527f45524332303a2064656372656173656420616c6c6f77616e63652062656c6f77604482015264207a65726f60d81b606482015260840161042b565b6109a53385858403610b02565b5060019392505050565b600061054a338484610c27565b6005546001600160a01b031633146109e65760405162461bcd60e51b815260040161042b90611137565b6008543360009081526006602052604081208054909190610a08908490611171565b90915550506000600855565b6005546001600160a01b031633146106555760405162461bcd60e51b815260040161042b90611137565b6005546001600160a01b03163314610a685760405162461bcd60e51b815260040161042b90611137565b6001600160a01b03821660009081526007602052604090205460ff1615158115151415610ad75760405162461bcd60e51b815260206004820152601760248201527f5573657220697320616c726561647920626c6f636b6564000000000000000000604482015260640161042b565b6001600160a01b03919091166000908152600760205260409020805460ff1916911515919091179055565b6001600160a01b038316610b645760405162461bcd60e51b8152602060048201526024808201527f45524332303a20617070726f76652066726f6d20746865207a65726f206164646044820152637265737360e01b606482015260840161042b565b6001600160a01b038216610bc55760405162461bcd60e51b815260206004820152602260248201527f45524332303a20617070726f766520746f20746865207a65726f206164647265604482015261737360f01b606482015260840161042b565b6001600160a01b0383811660008181526001602090815260408083209487168084529482529182902085905590518481527f8c5be1e5ebec7d5bd14f71427d1e84f3dd0314c0f7b2291e5b200ac8c7c3b92591015b60405180910390a3505050565b6001600160a01b038316610c8b5760405162461bcd60e51b815260206004820152602560248201527f45524332303a207472616e736665722066726f6d20746865207a65726f206164604482015264647265737360d81b606482015260840161042b565b6001600160a01b038216610ced5760405162461bcd60e51b815260206004820152602360248201527f45524332303a207472616e7366657220746f20746865207a65726f206164647260448201526265737360e81b606482015260840161042b565b6001600160a01b03831660009081526020819052604090205481811015610d655760405162461bcd60e51b815260206004820152602660248201527f45524332303a207472616e7366657220616d6f756e7420657863656564732062604482015265616c616e636560d01b606482015260840161042b565b6001600160a01b03808516600090815260208190526040808220858503905591851681529081208054849290610d9c908490611171565b92505081905550826001600160a01b0316846001600160a01b03167fddf252ad1be2c89b69c2b068fc378daa952ba7f163c4a11628f55a4df523b3ef84604051610de891815260200190565b60405180910390a3610798565b6001600160a01b038216610e555760405162461bcd60e51b815260206004820152602160248201527f45524332303a206275726e2066726f6d20746865207a65726f206164647265736044820152607360f81b606482015260840161042b565b6001600160a01b03821660009081526020819052604090205481811015610ec95760405162461bcd60e51b815260206004820152602260248201527f45524332303a206275726e20616d6f756e7420657863656564732062616c616e604482015261636560f01b606482015260840161042b565b6001600160a01b0383166000908152602081905260408120838303905560028054849290610ef89084906111c4565b90915550506040518281526000906001600160a01b038516907fddf252ad1be2c89b69c2b068fc378daa952ba7f163c4a11628f55a4df523b3ef90602001610c1a565b80356001600160a01b0381168114610f5257600080fd5b919050565b60008060408385031215610f6a57600080fd5b610f7383610f3b565b946020939093013593505050565b600060208083528351808285015260005b81811015610fae57858101830151858201604001528201610f92565b81811115610fc0576000604083870101525b50601f01601f1916929092016040019392505050565b600080600060608486031215610feb57600080fd5b610ff484610f3b565b925061100260208501610f3b565b9150604084013590509250925092565b60006020828403121561102457600080fd5b5035919050565b60006020828403121561103d57600080fd5b61104682610f3b565b9392505050565b60008060006040848603121561106257600080fd5b833567ffffffffffffffff8082111561107a57600080fd5b818601915086601f83011261108e57600080fd5b81358181111561109d57600080fd5b8760208260051b85010111156110b257600080fd5b6020928301989097509590910135949350505050565b600080604083850312156110db57600080fd5b6110e483610f3b565b9150602083013580151581146110f957600080fd5b809150509250929050565b6000806040838503121561111757600080fd5b61112083610f3b565b915061112e60208401610f3b565b90509250929050565b6020808252600a908201526937b7363c9030b236b4b760b11b604082015260600190565b634e487b7160e01b600052601160045260246000fd5b600082198211156111845761118461115b565b500190565b600181811c9082168061119d57607f821691505b602082108114156111be57634e487b7160e01b600052602260045260246000fd5b50919050565b6000828210156111d6576111d661115b565b500390565b634e487b7160e01b600052603260045260246000fd5b60006000198214156112055761120561115b565b506001019056fea26469706673582212209a15aaa0f105aec4aec8bf29f0a02fc430d812a654071b027506f6c8a5eb9a7f64736f6c634300080b0033",
    "sourcePath": "c:/Users/master-Sigvard/Desktop/hardhat/contracts/SCT.sol",
    "compiler": {
        "name": "solc",
        "version": "0.8.11+commit.d7f03943"
    },
    "functionHashes": {
        "Claim()": "3158952e",
        "EmergencyWithdraw()": "cc6a1a06",
        "SetLock(address,bool)": "d3ae1963",
        "addBeneficiaries(address[],uint256)": "9300a880",
        "addBeneficiary(address,uint256)": "96074e70",
        "admin()": "f851a440",
        "allowance(address,address)": "dd62ed3e",
        "approve(address,uint256)": "095ea7b3",
        "balanceOf(address)": "70a08231",
        "burn(uint256)": "42966c68",
        "decReward(address,uint256)": "9713f976",
        "decimals()": "313ce567",
        "decreaseAllowance(address,uint256)": "a457c2d7",
        "deposit()": "d0e30db0",
        "incReward(address,uint256)": "004bb37d",
        "increaseAllowance(address,uint256)": "39509351",
        "name()": "06fdde03",
        "symbol()": "95d89b41",
        "totalSupply()": "18160ddd",
        "transfer(address,uint256)": "a9059cbb",
        "transferFrom(address,address,uint256)": "23b872dd"
    },
    "gasEstimates": {
        "creation": {
            "codeDepositCost": "934800",
            "executionCost": "infinite",
            "totalCost": "infinite"
        },
        "external": {
            "Claim()": "33902",
            "EmergencyWithdraw()": "33803",
            "SetLock(address,bool)": "29153",
            "addBeneficiaries(address[],uint256)": "infinite",
            "addBeneficiary(address,uint256)": "51211",
            "admin()": "2469",
            "allowance(address,address)": "infinite",
            "approve(address,uint256)": "24665",
            "balanceOf(address)": "2651",
            "burn(uint256)": "50950",
            "decReward(address,uint256)": "29174",
            "decimals()": "200",
            "decreaseAllowance(address,uint256)": "27000",
            "deposit()": "33893",
            "incReward(address,uint256)": "26899",
            "increaseAllowance(address,uint256)": "27002",
            "name()": "infinite",
            "symbol()": "infinite",
            "totalSupply()": "2371",
            "transfer(address,uint256)": "51199",
            "transferFrom(address,address,uint256)": "infinite"
        }
    }
}